S01E000073746B353030626F6F745F76325F6D656761323536302E737265639E
S21403E00095C00000EDC00000EBC00000E9C00000B2
S21403E010E7C00000E5C00000E3C00000E1C0000068
S21403E020DFC00000DDC00000DBC00000D9C0000078
S21403E030D7C00000D5C00000D3C00000D1C0000088
S21403E040CFC00000CDC00000CBC00000C9C0000098
S21403E050C7C00000C5C00000C3C00000C1C00000A8
S21403E060BFC00000BDC00000BBC00000B9C00000B8
S21403E070B7C00000B5C00000B3C00000B1C00000C8
S21403E080AFC00000ADC00000ABC00000A9C00000D8
S21403E090A7C00000A5C00000A3C00000A1C00000E8
S21403E0A09FC000009DC000009BC0000099C00000F8
S21403E0B097C0000095C0000093C0000091C0000008
S21403E0C08FC000008DC000008BC0000089C0000018
S21403E0D087C0000085C0000083C0000081C0000028
S21403E0E07FC000005DF566F56EF575F579F581F58B
S21403E0F092F5DEF51EF6FCF5E6F7E6F7A7F6E6F785
S21403E100E6F7E6F7E6F7E6F7E6F7E6F7E6F7E6F71F
S21403E1101EF617F693F6C8F68CF7C8F68CF7E6F7EE
S21403E12053F67AF640F629F6E6F7A7F511241FBE4E
S21403E130CFEFD1E2DEBFCDBF01E00CBF12E0A0E01F
S21403E140B2E0EEEFF1EF03E00BBF02C007900D92D3
S21403E150A434B107D9F725E0A4E4B2E001C01D92C8
S21403E160A636B207E1F702D00D94FDF884B7809384
S21403E170460214BEE0E6F0E0808188618083108268
S21403E1808091460283FF05C0E0914402F091450268
S21403E190199511248FEF91E29EBF8DBF80914602A1
S21403E1A081FD05C0E0914402F09145021995D1D353
S21403E1B0759A6D9A54D175986D9881E1809357003E
S21403E1C0E89501E20EBF0FEF0DBFEE27FF27099478
S21403E1D0FFCF01E20EBF0FEF0DBF11241FBEC6CF48
S21403E1E00FCF8EBD0DB407FEFDCF08950F931F937B
S21403E1F0CF93DF938FEFF5DF2898CCE5D2E002E6E6
S21403E20012E08991EEDFC017D107D9F7CFEF8FEF72
S21403E210E8DF8EB5882314F4C150C9F7DF91CF9198
S21403E2201F910F910895FF920F931F93CF93DF9340
S21403E230DC01CB01880F991FAA1FBB1FECE5F2E098
S21403E24021E52083A18392838383148280E58CBD9A
S21403E250CDDFF82E811108C0CFEF8FEFC2DF9EB55A
S21403E2609E3F41F0C150C9F7289A0F2EF3E0FF2EC8
S21403E270F02D10C0C2E6D2E002E614E08FEFB1DF65
S21403E2809EB59993C017D107C9F78FEFAADF8FEF13
S21403E290A8DF289A8F2DDF91CF911F910F91FF90C2
S21403E2A008958F929F92AF92BF92CF92DF92EF9292
S21403E2B0FF920F931F93CF93DF9300914F0210911A
S21403E2C0500284E00236180708F460C0E7E4F2E080
S21403E2D0C081D181E280F3809090530288248A948F
S21403E2E0890C8E20969409F470C0892D6701D69404
S21403E2F0C7948695E1F7C114D10411F45CC0670195
S21403E3008FEFAD2EBB248A1549F0609151027091B0
S21403E31052026A0D7B1D80E090E085DFDD27CC0F7F
S21403E320DD1FCE59DD4F0990D881C02D81E0C81A74
S21403E330D1088A2D31F72297CE01A0E0B0E09920CC
S21403E34031F0880F991FAA1FBB1F9694D1F74091EF
S21403E3505602509157026091580270915902480D27
S21403E360511D611D711D5A016B01A80EB91ECA1EEF
S21403E370DB1EC601B50157DFE7E4F2E08FEFE81ACC
S21403E380F80AF382E282125011870087E7E4F2E08C
S21403E39084819581A681B7810197A109B1098483F8
S21403E3A09583A683B783A085B185CD010196918712
S21403E3B080878C910FC02297CE01A0E0B0E0C1CF3A
S21403E3C02297CE01A0E0B0E0C2CFE114F10409F039
S21403E3D096CFF6CFDF91CF911F910F91FF90EF90DD
S21403E3E0DF90CF90BF90AF909F908F900895CF937C
S21403E3F058DF813610F0875507C0813410F08753F5
S21403E40003C0803308F08053C82FC295C07F49DF0E
S21403E410813610F0875507C0813410F0875303C048
S21403E420803308F080538C0FCF910895CF93DF93FA
S21403E430279A2F9AEC0121971816190654F42F9849
S21403E44082E390E076D22F9A82E390E072D221970D
S21403E450B0F780ED97E06DD2DF91CF9108952F92BC
S21403E4603F924F925F926F927F928F929F92AF925C
S21403E470BF92CF92DF92EF92FF920F931F93CF93A9
S21403E480DF9383E090E0D2DF0F2EF6E6EF2EF4E084
S21403E490FF2EF02D0FEF1FE0C0E0C80198D68F3F88
S21403E4A049F0F70181937F01CF5F01501109C8300E
S21403E4B0A1F7D6C1EC2FF0E0EA59FB4F1082CC232C
S21403E4C009F4D1C1289A84B1876084B9209A83E578
S21403E4D08CBDCAE08FEF85DEC150E1F7ECE5F2E0D4
S21403E4E080E48083118212821382148285E98583F5
S21403E4F07DDED82F289A8FEF74DED13009F49AC1C7
S21403E500CF5FC031A9F7AFC181E480935C0203C03B
S21403E510289A8FEF66DE6ADE8111FACF60E070E03C
S21403E520CB0181DE80919802863449F480919C0267
S21403E530863329F4109252021092510217C060914A
S21403E54028047091290480912A0490912B047093D7
S21403E55052026093510267DE80919802863409F076
S21403E56082C180919C02863309F07DC1E2E6F2E027
S21403E57085858093530240915102509152028685BD
S21403E5809785840F951F909352028093510260895A
S21403E59026893789629FA001639F500D1124480F77
S21403E5A0591F50935B0240935A0221893289C9014D
S21403E5B0929582958F7089279F708927909355022D
S21403E5C080935402840F951FA0E0B0E08093560218
S21403E5D090935702A0935802B09359028AE090E0B2
S21403E5E025DF80E092E0AFD581E192E0ACD56BE029
S21403E5F070E086E694E091D58EE092E0A4D500E044
S21403E60010E00F2EF7E4CF2EF2E0DF2EF02D0F2EC4
S21403E610F2E68F2EF4E09F2EF02D0F2EF6E6AF2EA9
S21403E620F4E0BF2EF02D612C77247394412C512CEB
S21403E630F72C6894332431F8E62CC801929582951A
S21403E6408F7089279F708927209154023091550235
S21403E6508217930708F0E3C060915A0270915B0239
S21403E660680F791F80E090E0DEDDC02FCF70F0E208
S21403E670CF9FE0011124CE59DD4F8881882309F40A
S21403E680CEC0853E09F4CBC08A8D9B8D009709F4D6
S21403E690C6C0F601918380838C8D9D8DAE8DBF8D14
S21403E6A084839583A683B78313821282918680869A
S21403E6B0F50120812223C9F0362D572D842D952D63
S21403E6C0FE01E80FF91F4F2D808182134E2D542330
S21403E6D03F5F832F90E0FC01EA59FB4F2081211115
S21403E6E0EFCF552311F031110BC088E192E02BD503
S21403E6F06DE070E0CE0111D58EE092E024D58FC098
S21403E7008985853469F48885883421F48A85883533
S21403E71039F494C0853421F48A85803509F490C091
S21403E7208FE192E010D56DE070E0CE01F6D48EE076
S21403E73092E009D574C0109262041092630410929A
S21403E740640410926504C6E6D4E0B12C07E412E034
S21403E7500F2EF2E6CF2EF4E0DF2EF02D7E0149C019
S21403E760BB2091F14E01FFEF8F1A9F0A40DE88838C
S21403E770BA9486E6881685E0980609F037C087E2DD
S21403E78092E0E1D480916404E2D480916304DFD400
S21403E790F6018081DCD48EE092E0D5D477D08091E8
S21403E7A0620490916304A0916404B09165049F5F32
S21403E7B0AF4FBF4F8093620490936304A0936404A7
S21403E7C0B0936504E70115C06CDD8A3391F40FDE60
S21403E7D0A82EF801208531852C5F3F4F318720878F
S21403E7E006DE882329F0813021F40DC0E40101C040
S21403E7F0BA2CF80184819581A681B781892B8A2B4F
S21403E8008B2B09F0ADCF83E392E09DD4C9E0D0E033
S21403E8106FEF8EEF9FE0E3D42197D1F724C00F5F0D
S21403E8201F4F0115F2E01F0709F007CF84E690E0BB
S21403E83080D019C0C03109F067CE15C0272C01C09F
S21403E840232C8CE392E07FD46DE070E0CE0165D498
S21403E8508EE092E078D481E0281609F46CCFDFCFFF
S21403E86010926E042FCEDF91CF911F910F91FF90E0
S21403E870EF90DF90CF90BF90AF909F908F907F9058
S21403E8806F905F904F903F902F900895CF92DF92B6
S21403E890EF92FF92CF93DF93F999FECFC090620475
S21403E8A0D0906304E0906404F090650483E0F6017E
S21403E8B0E0925B0080935700E89507B600FCFDCF17
S21403E8C0C6E6D4E066E675E0D701C60141E02991C5
S21403E8D039910901FC01A0935B0040935700E8952A
S21403E8E011240296A11DB11DC617D70781F785E02F
S21403E8F0F601E0925B0080935700E89507B600FCAC
S21403E900FDCF81E180935700E895DF91CF91FF908B
S21403E910EF90DF90CF9008958093C600E0ECF0E090
S21403E920808186FFFDCFE0ECF0E080818064808309
S21403E9300895009769F020E030E0EFECF7E03197B8
S21403E940F1F700C000002F5F3F4F28173907A9F7DC
S21403E95008952F923F924F925F926F927F928F927B
S21403E9609F92AF92BF92CF92DF92EF92FF920F9356
S21403E9701F93CF93DF93CDB7DEB7C452D1400FB604
S21403E980F894DEBF0FBECDBF94B7F894A89514BE17
S21403E990E0E6F0E08081886180831082789493FDBE
S21403E9A09BC3279A2F9AE0ECF0E0808182608083F5
S21403E9B080E18093C40088E18093C1000000C12CED
S21403E9C0D12C7601412C512C0F2EF0ECAF2EB12C0E
S21403E9D0F02D88248394912C242C352C2EC025E0EE
S21403E9E02A95F1F700003FEFC31AD30AE30AF30AA6
S21403E9F0982D892D41E2C4164EE4D406E104F104B1
S21403EA0010F4922D832D092F182FC701B60127EC7A
S21403EA103BE140E050E0B1D3672B682B692B19F438
S21403EA2085B1805885B9D5018C9188231CF00115D2
S21403EA301105A9F20F5F1F4F19F4042D152DF3CFFF
S21403EA4038010130110509F031C30EC3E1E06E163B
S21403EA507104B1F47C91662E752E22C0F1E0CF1AB4
S21403EA60D108E108F108B9F4C12CD12C7601EBBE2C
S21403EA70F60187919691019619F0EE27FF270994E0
S21403EA80CC24C3940F2EF2E1DF2EF02D0F2EFAE7DF
S21403EA90EF2EF02DF12CF80180818823FCF67C9173
S21403EAA0C42ED12CF7E0CF16D10408F03FC0F601F0
S21403EAB08827EE58FF408E4F82C37B3109F0C6CFBE
S21403EAC00F2EFBE19F2EF02D41E0C0CF9726C25EAE
S21403EAD0DE4F7883CE51D14042E0B8CF272F30E0C7
S21403EAE0322F2227972643E0B1CF272B972644E0E1
S21403EAF0ADCF7E3009F0F3C29824A62EB52E45E09E
S21403EB00A5CFC5010196E1E0F0E0EC0FFD1FEA0D8D
S21403EB10FB1D708397268217930709F0E2C25C01F8
S21403EB2046E094CF791529F040E090CF473009F0BE
S21403EB308DCF2981822F90E0FC013197ED31F105CD
S21403EB4008F044C28827E758FF408E4F38C39D819C
S21403EB50903339F48F818823C9F08130C9F081E07E
S21403EB601CC0892F8075B1F0903539F4E0E0F0E0F1
S21403EB7089E080935700849110C0983569F4E3E0E8
S21403EB80F0E089E080935700849107C08EE105C0CA
S21403EB9088E903C080E001C080E01A821B829C8360
S21403EBA01D828E831F82C15EDE4F1882CF51D140F5
S21403EBB00F2EF7E0EF2EF12CF02D13C21A8288E009
S21403EBC08B8381E48C8386E58D8382E58E8389E45B
S21403EBD08F8383E5888780E589878FE58A8782E345
S21403EBE08B87C15EDE4F1882CF51D1400F2EFBE0DC
S21403EBF0EF2EF12CF02DF5C18A81813931F082395F
S21403EC0031F0803931F48FE005C082E003C08AE03A
S21403EC1001C080E01A828B83C15EDE4F1882CF511B
S21403EC20D1400F2EF3E0EF2EF12CF02DDAC121E0C8
S21403EC30C15EDE4F2883CF51D14005C0C15EDE4F93
S21403EC401882CF51D1401A826894EE24E1F8F12C51
S21403EC50C8C18D81882321F0813021F081E003C073
S21403EC608EE101C088E91A828B831C82C15EDE4F67
S21403EC701882CF51D1406894EE24E2F8F12CB1C14A
S21403EC801A82E1E0F0E089E08093570084918B8359
S21403EC901C82C15EDE4F1882CF51D1406894EE24A9
S21403ECA0E2F8F12C9EC18B81803589F48C81883003
S21403ECB039F4E2E0F0E089E08093570084910DC0D8
S21403ECC0E0E0F0E089E080935700849106C0E3E03B
S21403ECD0F0E089E08093570084911A828B831C822C
S21403ECE0C15EDE4F1882CF51D1406894EE24E2F81D
S21403ECF0F12C77C18D81836C99E0E1E0F0E0082E7A
S21403ED0090935700E89507B600FCFDCF1A821B8246
S21403ED10C15EDE4F1882CF51D1400F2EF3E0EF2EA7
S21403ED20F12CF02D5EC180EC8A83C15EDE4F188223
S21403ED30CF51D1406894EE24E1F8F12CCF5DDE4F3D
S21403ED40188219821A821B82C152D1404AC18A8113
S21403ED502B80422D50E060E070E0BA01552744272F
S21403ED60782B8D81482B8C816A017B01D82A16016A
S21403ED702701220C331C441C551C1A82C15EDE4F2D
S21403ED801882CF51D1406894EE24E1F8F12C29C1C2
S21403ED908A8190E0982F88273B817C01E32AC15E15
S21403EDA0DE4FF982E882CF51D140233109F075C096
S21403EDB0CF5DDE4FC880D980EA80FB80C152D14048
S21403EDC0C11420ECD20623E0E206F104E8F483E063
S21403EDD0F601E0925B0080935700E89507B600FCC7
S21403EDE0FDCFCF5DDE4F88819981AA81BB81C15259
S21403EDF0D1409F5FAF4FBF4FCF5DDE4F8883998370
S21403EE00AA83BB83C152D1408C8590E0982F882774
S21403EE102B85822B21E00C01F10140925B002093AD
S21403EE205700E8951124B201A1014E5F5F4F6F4F63
S21403EE307F4FC15EDE4F28813981CF51D1402250AA
S21403EE403109D1F0DE011D96FF24F3948C911296BE
S21403EE50FD013197E08190E09E2B0C01FA0160934F
S21403EE605B00F0925700E89511244E5F5F4F6F4F9B
S21403EE707F4F2250310951F785E0F10140925B0044
S21403EE8080935700E89507B600FCFDCF81E1809399
S21403EE905700E8951A012B0134C0D201C101B6957B
S21403EEA0A795979587954C01C15EDE4FC880D9809C
S21403EEB0CF51D140C114D10421F17E012BE0E20EE3
S21403EEC0F11CD7016D917D01C40189D1BFEF8B1A67
S21403EED09B0AE1E0CE1AD108A1F7C15EDE4F888116
S21403EEE09981CF51D1400197A0E0B0E0880F991FD8
S21403EEF0AA1FBB1F0296A11DB11D280E391E4A1E4E
S21403EF005B1E1A82C15EDE4F1882CF51D1406894D1
S21403EF10EE24E1F8F12C65C08A8190E0982F8827CB
S21403EF203B816C01C32A7601F3E0EF0EF11C1A82D3
S21403EF302431A9F4DE0113964BBEF1018791969115
S21403EF408C931296FD013197908322E0220E311C9A
S21403EF50411C511C32E0C31AD10871F730C0FE01C0
S21403EF60339696012E5F3F4F41E050E04C0F5D1FF6
S21403EF70240F351FB201A10141BDBB27A72F962F32
S21403EF80852F82BD4F5F5F4F6F4F7F4FF89A80B5D7
S21403EF908193E217F30781F7A6014150510960E018
S21403EFA070E04F5F5F4F6F4F7F4F240E351E461E38
S21403EFB0571EA3E0B0E0AC0FBD1FAC0DBD1D1C92E9
S21403EFC0C15EDE4F1882CF51D1400BC080EC8A83DE
S21403EFD0C15EDE4F1882CF51D1406894EE24E1F82B
S21403EFE0F12C8BE199DCC25EDE4F8881CE51D14095
S21403EFF093DC8F2D91DC8E2D8FDC85E1C25EDE4F98
S21403F0009880CE51D14098269E248EE085DC9F249E
S21403F010E114F10489F0CE0101966C01892D4601B5
S21403F020C82ED401DD904D018D2D76DCCD24B1E0C4
S21403F030EB1AF108B1F79C2C892D6EDCC25EDE4F0D
S21403F040E881CE51D140EF5FC25EDE4FE883CE51FA
S21403F050D14085B1805885B9C15EDE4FC880CF5197
S21403F060D140CC20B9F022C0CF5DDE4F1882198282
S21403F0701A821B82C152D140212C312C2101C25E3F
S21403F080DE4F1882CE51D140F12CA12CB12C00ECCE
S21403F09010E09F2C20E030E040E0A6ECB0E060E01B
S21403F0A050E00F2EFEE08F2EF02DD0CC27982F9811
S21403F0B084E690E03EDC0000E0ECF0E080818D7FAB
S21403F0C0808381E180935700E89581E090E06A941D
S21403F0D0672849F080E007C080E090E004C040E085
S21403F0E0B5CC5C01B3CCCC5DDE4F0FB6F894DEBF77
S21403F0F00FBECDBFDF91CF911F910F91FF90EF9081
S21403F100DF90CF90BF90AF909F908F907F906F903F
S21403F1105F904F903F902F9008950F931F93CF9338
S21403F120DF93EB018C01DD2314F021973AF0F8010D
S21403F13081918F01882311F0EFDBF5CFDF91CF911B
S21403F1401F910F9108956FEF7FEFE7CF0895CF9349
S21403F150C82F982F92959F7080E3890F8A3310F0FB
S21403F16087E3890FD9DBCF7080E38C0F8A3310F0E7
S21403F17087E38C0FD1DBCF910895A1E21A2EAA1B49
S21403F180BB1BFD010DC0AA1FBB1FEE1FFF1FA2174F
S21403F190B307E407F50720F0A21BB30BE40BF50B4C
S21403F1A0661F771F881F991F1A9469F760957095D5
S21403F1B0809590959B01AC01BD01CF010895EE0F9C
S21403F1C0FF1F881F8BBF0790F691E02D1994F999BE
S21403F1D0FECF92BD81BDF89A992780B50895262F54
S21403F1E0F999FECF1FBA92BD81BD20BD0FB6F89424
S21203F1F0FA9AF99A0FBE01960895F894FFCF87
S21403F1FE4D4D4320426F6F746C6F616465720D0ADA
S21403F20E0046696C653A2000536B69703A200045D8
S21403F21E78744D4D3A200050616765577269746570
S21403F22E3A2000456E642046696C6500466F756E1F
S20803F23E643A200006
S80403E00018
